:0E0000000C9464020C9400000C943D070C94C8
:10000E0000000C9400000C9400000C9400000C9462
:10001E0000000C9400000C9400000C94F1060C945B
:10002E0000000C9400000C9400000C9400000C9442
:10003E0000000C9400000C9400000C9400000C9432
:10004E0000000C9400000C9400000C9400000C9422
:10005E0000000C9400000C9400000C9400000C9412
:10006E0000000C9400000C9400000C9400000C9402
:10007E0000000C9400000C9400000C940000000092
:10008E0000000000004F00000007000700147F145E
:10009E007F14242A7F2A12231308646236495522BC
:1000AE00400005030000001C2241000041221C00FC
:1000BE0014083E081408083E0808005030000008D6
:1000CE0008080808006060000020100804023E5175
:1000DE0049453E00427F400042615149462141451B
:1000EE004B311814127F1027454545393C4A494972
:1000FE003001710905033649494936064949291E19
:10010E000036360000005636000008142241001456
:10011E001414141400412214080201510906324924
:10012E0071413E7E1111117E7F494949363E414152
:10013E0041227F4141221C7F494949417F090909DA
:10014E00013E4149493A7F0808087F00417F41003E
:10015E002040413F017F081422417F404040407FB4
:10016E00020C027F7F0408107F3E4141413E7F0911
:10017E000909063E4151215E7F0919294646494922
:10018E00493101017F01013F4040403F1F20402087
:10019E001F3F4070403F6314081463070870080740
:1001AE006151494543007F4141000204081020007F
:1001BE0041417F00040201020440404040400001E2
:1001CE0002040020545454787F4844443838444440
:1001DE004420384444487F3854545418087E09014A
:1001EE00020C5252523E7F0804047800447D4000B7
:1001FE002040443D007F1028440000417F40007C99
:10020E00041804787C0804047838444444387C1478
:10021E00141408081414187C7C0804040848545458
:10022E005420043F4440203C4040207C1C20402071
:10023E001C3C4030403C44281028440C5050503C4C
:10024E004464544C44000836410000007F00000016
:10025E0041360800020102020100000000007E117A
:10026E0011117E7F494949337F494949367F010142
:10027E000103E0514F41FF7F4949494177087F080B
:10028E007741494949367F1008047F7C2112097C49
:10029E007F0814224120413F017F7F020C027F7FA5
:1002AE000808087F3E4141413E7F0101017F7F09E1
:1002BE000909063E4141412201017F0101472810F3
:1002CE0008071C227F221C63140814637F404040E1
:1002DE00FF070808087F7F407F407F7F407F40FFF9
:1002EE00017F4848307F4830007F007F48483022E9
:1002FE004149493E7F083E413E462919097F205417
:10030E005454783C4A4A49317C545428007C0404A5
:10031E00040CE0544C44FC38545454186C107C10AB
:10032E006C44445454287C2010087C7C4122117C5F
:10033E007C1028440020443C047C7C0810087C7C03
:10034E001010107C38444444387C0404047C7C1423
:10035E00141408384444442004047C04040C505003
:10036E00503C3048FC483044281028447C404040E3
:10037E00FC0C1010107C7C407C407C7C407C40FC53
:10038E00047C5050207C5050207C7C505020002803
:10039E00445454387C10384438085434147C475F25
:1003AE004F4E474F46464552524F4241545400001D
:1003BE000000313233343536373839003132333488
:1003CE00353637383900313233343536373839002F
:1003DE0045525200CBC8CDC8DF2000C2CACB200088
:1003EE00C2DBCACB2000D0C5C7C5D0C20059414D13
:1003FE004148410020202020202000D2E0E9ECE5F9
:10040E00F0004F4B00D2F0E0EDF1E8E2E5F000CE67
:10041E00CA00D0E5EBE5203100D0E5EBE520320057
:10042E00C7E2F3EA004F4B2020202000C2DBCACBEC
:10043E00202000D0E5E6E8EC00CBE8EDE8FF00C2B6
:10044E00DBCACB0059616D616861005520E8E1EFB0
:10045E00002020202020C2005520E3E5ED00D1E24F
:10046E00FFE7FC0020203A20203A20200020202EFA
:10047E0020202E20200031362E30312E3130004FEC
:10048E004E0031383A3332004F460031383A333469
:10049E00000001002D4E414E000004000005AC038B
:1004AE0004000505B00304000A05B40304000F059B
:1004BE00B80301003005A0040000F894EE27ECBB51
:1004CE00F1E0F5BFE5BFE0936C00F8E1F1BDE1BDF1
:1004DE008DE0A2E0BB27ED938A95E9F780E090E1ED
:1004EE00A0E0B1E0ED930197E9F7E8EAF4E0859139
:1004FE009591009761F0A591B59105901590BF016A
:10050E00F00105900D920197E1F7FB01F0CF8BBF43
:10051E00EFEFEDBFE0E1EEBFC0E0D5E00C941008C8
:10052E001A930A9310E000E003B300FF02C01160BB
:10053E0001C01E7F01FF02C0126001C01D7F02FFBD
:10054E0002C0146001C01B7F03FF02C0186001C00F
:10055E00177F04FF02C0106101C01F7E05FF02C09D
:10056E00106201C01F7D06FF02C0106401C01F7B18
:10057E0007FF02C0106801C01F77E12F9CC31A93BA
:10058E0010E0E981E17011F0116001C01E7FE98178
:10059E00E27011F0126001C01D7FE981E47011F06C
:1005AE00146001C01B7FE981E87011F0186001C072
:1005BE00177FE981E07111F0106101C01F7EE981A2
:1005CE00E07211F0106201C01F7DE981E07411F03C
:1005DE00106401C01F7BE981E07811F0106801C042
:1005EE001F7715BB1881229608951A930E94700EDC
:1005FE00DB980EC01A93F9DF1E2F103819F4F5DFB1
:10060E001E2FFBCF11C01A93F5DF0E94700EDB9ADE
:10061E00DC9A8BE18A95F1F7DA9A8BE18A95F1F7FC
:10062E007FDF1E2FDA98E12F19910895E3DFDB9A11
:10063E0002C0E0DFDB98DC98EFEFE4BB8BE18A953C
:10064E00F1F7DA9AE881EA939ADF8BE18A95F1F76E
:10065E00DA9821960895EFEFE4BBECEFEABBE0E009
:10066E00EBBB0E94740EDD9ADF9A0E947A0EDF9821
:10067E00DE9AC0DF0E947A0E08951A930A93DE98CE
:10068E008BE18A95F1F7DF9A0E94820E183058F4AA
:10069E000E948C0E003428F4E0E0EA93C7DF0F5F6F
:1006AE00F9CF1F5FF3CFEFE3EA93C3DFDF988BE160
:1006BE008A95F1F7DE9A0E94820E183058F40E9445
:1006CE008C0E003428F4E0E0EA93B0DF0F5FF9CF30
:1006DE001F5FF3CFEFE3EA93ACDFEDC20E948C1203
:1006EE00AE81EFE70E9423120E2EAD81EFE30E9442
:1006FE002312E02919F00E9493126AC3AE81A0342E
:10070E0040F0DF98DE9AEE81F0E0E054F040EE83A8
:10071E0002C0DE98DF9AAD810E94930EAD81BB2799
:10072E00E8E0F0E00E944D123E2F0E949A0E0E94C9
:10073E00A40E0E949A0E0E94AB0E31F4E32FAC81F0
:10074E000E940412E12B26C0E130A0E0FA0731F43A
:10075E00E32FAC810E940412E1271CC0E230A0E01E
:10076E00FA0721F40E94AF0EE12B14C0E330A0E093
:10077E00FA0721F40E94AF0EE1270CC0E430A0E08E
:10078E00FA0711F4EC8106C0E530A0E0FA0721F477
:10079E00EC81E095EA934ADF3130A8F10E94B60E63
:1007AE000E94A40E0E94B60E0E94AB0E21F46C8124
:1007BE000E94C10E26C0E130A0E0FA0711F46C8150
:1007CE0013C0E230A0E0FA0739F4AC81EFEFEA276C
:1007DE006E2F0E94C10E15C0E330A0E0FA0799F407
:1007EE00AC81EFEFEA276E2F7727E32FF0E0A8E03A
:1007FE00B0E00E948312EA1BFB0BDB010E940C127D
:10080E00E127EA9313DF0E949312E2C21A930A932E
:10081E00AA81A03910F410E201C010E600E0053004
:10082E00D0F40E94CF0EAC81BB270E94D60E0E9440
:10083E008312EA1BFB0BA5E0B0E00E942812E457DE
:10084E00FF4FDF010E94D90EEA0FFB1FE491EA93DE
:10085E0045DF0F5FE4CF0E94CF0EE0E0EA933EDF6C
:10086E001981088120C01A9310E0E981FA81E49180
:10087E00E03041F00E94DC0EEB81FC81E4910E949D
:10088E00E60EF3CF0FC01A9310E0A981BA81EC9156
:10089E00E03041F00E94DC0EAB81BC81EC910E94F5
:1008AE00E60EF3CF1881259608950E948C12AD8125
:1008BE00EFE70E9423120E2EAC81EFE30E9423126B
:1008CE00E02919F00E94931264C3AD81A03440F068
:1008DE00DF98DE9AED81F0E0E054F040ED8302C047
:1008EE00DE98DF9AAC810E94930EAC81BB27E8E0C4
:1008FE00F0E00E944D121E2FE02FE86BEA9399DE76
:10090E00ED81E064EA9395DE7EDE3E2F7CDE3E2FA7
:10091E000E94AB0E31F4E12FA1E00E9404123E2B97
:10092E0009C0E130A0E0FA0729F4E12FA1E00E940E
:10093E0004123E27ED81E064EA937BDE3A9376DE85
:10094E000E94931226C36097E0E0EA83EB83EC8368
:10095E00ED830E948A12AE89BB27E88DF0E0AE1BB4
:10096E00BF0B9D01AF89BB27E98DF0E0AE1BBF0B1E
:10097E008D0100240016010621F400240216030640
:10098E0009F001C076C0E1E0F0E0E88BF98BEE876C
:10099E00FF8711234AF4F8010E94F8118F01EFEF3F
:1009AE00FFEFE88BF98B06C0002E012A19F4E0E068
:1009BE00E88BE98B332342F4F9010E94F8119F0171
:1009CE00EFEFFFEFEE87FF87021713074CF4E0E01F
:1009DE00EE83EF830C871D8789012C853D8504C02E
:1009EE00E1E0F0E0EE83FF83F901EE0FFF1FAF01B0
:1009FE00FA01E01BF10BEC87FD87E01BF10BEC8B92
:100A0E00FD8BE98DF0E0EA87FB87E88DF0E0E88763
:100A1E00F987E0E0EA8BEB8BAA89BB89A017B107B7
:100A2E0044F5EA85EA93E985EA933FDFEE81FF819B
:100A3E00309719F00E94F00E02C00E94F90EAD859B
:100A4E00AA2322F4FA010E94020F0DC0EC89FD893F
:100A5E000E94020FEE81FF81309719F00E94F90E6D
:100A6E0002C00E94F00EEA89FB893196EA8BFB8B5D
:100A7E00D3CFEA85EA93E985EA9317DF0E949112B4
:100A8E006A960895E8EEE1BBE0E0E2BB959A979A8C
:100A9E0096989398E0EDF7E00E94090F08950E9452
:100AAE000D0FE9E9F2E80E94130FE0E4F6EA0E9466
:100ABE00130FE7E4F6EC0E94130FE0EAF4E90E944C
:100ACE00130FECEAF2EC0E94130F0E94170FE4EDE5
:100ADE00FEEC0E94130FE3E8F4EC0E94130FE0E526
:100AEE00F8E90E94130FE7E1FCEC0E94130FE0E01F
:100AFE00F0EE0E94130FE0E0F8EC0E94130FE0E01E
:100B0E00F0EC9AC00E940D0FE9E3F2E80E94130F79
:100B1E00E0E4F6EA0E94130FE7E4F6EC0E94130FEE
:100B2E00E0EAF4E90E94130FECEAF2EC0E94130FD4
:100B3E000E94170FE4EDFEEC0E94130FE3E8F4ECB5
:100B4E000E94130FE0E5F8E90E94130FE7E1FCECB9
:100B5E000E94130FE0E0F0EE0E94130FE0E0F8ECBD
:100B6E000E94130FE0E0F0EC67C00E948C1220E0B0
:100B7E0030E020E030E09698959810E01031C0F407
:100B8E00ED81E07811F0979A01C09798969A220F0E
:100B9E00331F849921600E941A0FEC81FD81EE0FA4
:100BAE00FF1FEC83FD8383E08A95F1F71F5FE6CF8D
:100BBE00959A8BE18A95F1F7F9010E949312E9C19A
:100BCE001A9310E0E9E3F2E80E94130FE5E0F0E07B
:100BDE000E94090F9598939AE8EBEA93E0E00E9441
:100BEE001F0F0E941F0FEA932BD0EDE20E94260FDB
:100BFE00E4ED0E94260F10E0E9811E1750F4AA8141
:100C0E00BB81EE27A10FBE1FEC910E94260F1F5F26
:100C1E00F3CFEAEA0E94260FE0E00E94260F959A93
:100C2E009398E1E0F2E80E94130F1881249608953C
:100C3E000E94170FE3E8FAECFA93EA9396DF089511
:100C4E001A93A981A13021F4E0B3E095E071E1F7A8
:100C5E00969810E0183088F4EA81E07811F0979AAF
:100C6E0001C09798969A0E941A0FEA81EE0FEA83B6
:100C7E0083E08A95F1F71F5FEDCF8BE18A95F1F74F
:100C8E0018817EC01A930A9300E000E0939896981C
:100C9E0010E0183058F4969A000F849901600E9463
:100CAE001A0F83E08A95F1F71F5FF3CF939A8BE1CA
:100CBE008A95F1F7E02F0991199108950E948C12EF
:100CCE00EC81F0E0EF70F0708F01EC81F0E0E07FEE
:100CDE00F0700E941512AAE0B0E00E9430129F013F
:100CEE00E22FE00F0E949312D6C41A930A9310E0DB
:100CFE0008E0E0916100E062E0936100E091610044
:100D0E00E068E0936100E0916100E064E0936100CF
:100D1E00E0916200E068E093620000E00830A8F421
:100D2E00EA81E17021F0E0916200E06403C0E0919D
:100D3E006200EF7BE0936200EA81F0E0F595E795C3
:100D4E00EA830E942B0F0F5FE9CFE0916100EF7BEA
:100D5E00E093610000E0083058F40E94D60EF5953D
:100D6E00E7951E2F069910680E942B0F0F5FF3CF89
:100D7E00E0916200EF77E0936200E12F1981088124
:100D8E00239608951A93E5E80E943C0FAD81BE812B
:100D9E00EC93E3E80E943C0FAB81BC81EC93E1E85D
:100DAE000EC01A93E7E80E943C0FAD81BE81EC9312
:100DBE00E9E80E943C0FAB81BC81EC93EDE8EA932D
:100DCE0094DF1E2F1A937ADFA981BA81EC931881D2
:100DDE0027960895AA93EA93EFB7EA93E4E6E4BD63
:100DEE00A895A0911405A03041F0A0911405A4314E
:100DFE0021F0A0911405A83229F4E0911505E460C4
:100E0E00E0931505A0911405A233E9F4E0E0E09318
:100E1E001405E0912905E03029F0E0912A05EF5FF5
:100E2E00E0932A05A0912905A03021F4A0912A056E
:100E3E00A03009F403C0E0E0E0932A05E091150527
:100E4E00E260E0931505A0912E05A13028F0E09107
:100E5E002E05EF5FE0932E05E0911405EF5FE09312
:100E6E001405E991EFBFE991A99118950A921A928A
:100E7E00FA926A937A938A939A93AA93BA93EA937D
:100E8E00FA93EFB7EA931A930A9310E0E9B7ED7F5E
:100E9E00E9BFC798F7DE1E2FE0911B05E03059F42D
:100EAE0000E0053040F40E94D90EEA5EFA4FA0E051
:100EBE00A0830F5FF6CFE0911B05F0E0EA5EFA4FDC
:100ECE001083E0911B05EF5FE0931B05A0911B05BE
:100EDE00A43059F4E0E0E0931B05E0931A05A8DE78
:100EEE00E0911505E160E0931505C79AE9B7E26058
:100EFE00E9BF09911991E991EFBFF991E991B99182
:100F0E00A9919991899179916991F9901990099086
:100F1E001895E0E0E5BDE4E6E4BDECE9E3BDE5E00F
:100F2E00E5BD08952697E1E3E883E2E3E983E3E391
:100F3E00EA83E4E3EB83E5E3EC83E0E0ED83E09327
:100F4E002E05E0912F05EF5FE0932F05E0912F0521
:100F5E000E94430FECE3EA93E8E20E944A0FE0910D
:100F6E002C05EA931ED3A0912F05AF3090F0E0E050
:100F7E00E0932E05E8E2EA93EA93EEEDF3E00E94A9
:100F8E00510FE0E0E0932F05E5E0E0932C05E093B0
:100F9E002D0526960895E0912B05F0E0309769F423
:100FAE000E94550FE2EEF3E00E94510F0E945A0F7D
:100FBE000E945F0F0E94620F28C0E130A0E0FA0786
:100FCE0079F40E94550FE4EFF3E00E94510F0E9456
:100FDE00620F0E94510F0E945A0FEEEEF3E015C001
:100FEE00E230A0E0FA0769F40E94550FEBEFF3E050
:100FFE000E94510F0E94690F0E945A0FEEEEF3E00D
:10100E0004C00E94550FE2E0F4E0FA93EA932BDC61
:10101E0008952E978EE0A0E0B0E0ECEBF3E00E9496
:10102E00981220E030E040E050E00E94950CEFE195
:10103E00E1BDEFE0E1BDE0E8E4BFE4BFE0ECE7B91D
:10104E00E3E8E6B9E0E0E0936200ECE0E0936100F3
:10105E00E0E9E7BBE1E0E1BBEAE0E0932B05EEED72
:10106E00E0932605E0E0E0932205F5DA552405DB52
:10107E000E946E0FE9E0F4E00E94510FEFE1F5E0FF
:10108E00FA93EA93E0E2F5E0FA93EA93E1E2F5E00F
:10109E00FA93EA9377DE0E94750FE8E5E093210557
:1010AE00E0932005E0931F05E8ECF0E00E94090FA5
:1010BE00ECE3EA93E5E0EA93E0E1F4E00E94510FFD
:1010CE00E0E0EA93EAE0EA93E3E1F4E00E94510FF4
:1010DE00D9DC18DD0E94830FE2DCAADDECE3EA9393
:1010EE00EAE00E948B0FE0E0EA93E4E1EA93E0E2AB
:1010FE00F4E00E94510FC79A0E948F0FE091620098
:10110E00E860E09362000E948F0F0E94920FECE362
:10111E00EA93E4E10E948B0FE0E0EA93E9E1EA93BF
:10112E00E7E2F4E00E94510F0E948F0FE0916200FF
:10113E00E460E09362000E948F0F0E94980FECE330
:10114E00EA93E9E10E948B0FE0E0EA93E3E2EA938F
:10115E00EEE2F4E00E94510F0E948F0F10E0123069
:10116E0058F4C79828D30E94740EC79AEDE7F0E0A2
:10117E000E94090F1F5FF3CFECE3EA93E3E20E94B4
:10118E008B0F0E948F0F552478DA26D3E1E0EA9375
:10119E0008D2ECE0E0936A00E0E0EABFE2E0E9BFEB
:1011AE00E8BFB7DEE0E4E7BFE0E0E0937D007894CF
:1011BE00A0912E05A43608F0B5DEE0911505E1707C
:1011CE0011F40C945D09E0911505EE7FE093150581
:1011DE00E0E0E0932E05EEE1EA93ECE3EA93E3E040
:1011EE00F4E00E94510FEEE1EA93ECE3EA930E94E1
:1011FE009E0F49DBE0911605F0E0F097FF2312F009
:10120E003A970CF00CC0E1E0E0932D050E949E0F82
:10121E000E94E20CE0932405F0932505CCD20E94A7
:10122E009E0FE0E0F5E00E94A30F19F0E2E0E093DC
:10123E002D050E949E0FE5E0F5E00E94A30F19F028
:10124E00E0E0E0932D050E949E0FEAE0F5E00E949B
:10125E00A30F79F0E0912705EF5FE0932705A091AA
:10126E002705A33030F0E1E0E0932805E0E0E093BD
:10127E002205A0912C05E0912D05EA1711F052DE02
:10128E0015C0E8E2EA93EA93E3E3F4E00E94510F1B
:10129E00E0E0E0932F0510E0153040F40E94D60EEA
:1012AE00EA5EFA4FA0E0A0831F5FF6CFE09115052E
:1012BE00E27011F40C94C609E0911505ED7FE093F0
:1012CE00150569DEE0E0EA9368D29F013A932A930E
:1012DE000E94A90F0E94130DE2E3EA93E9E1EA935B
:1012EE00E7EEF3E00E94510FF901662777270E947F
:1012FE00BB10A0E0B0E080E791E40E944511DF0151
:10130E00CB01E0E0F0E060E174E40E94AE0FE9E1B1
:10131E00EA930E94A90FB7DA0E946E120E94BF0FC5
:10132E000E9445110E948410AF0140932605E09162
:10133E002405F0912505662777270E94BB10DF0153
:10134E00CB010E94BF0F0E94AE0FE3E2EA930E9410
:10135E00A90F99DAA0912105A03031F0A0912405B2
:10136E00B0912505109759F4E0912E05E03039F42F
:10137E00A0912205A23019F0E1E0EA9312D1E0919A
:10138E001505E47031F0E0911505EB7FE09315053E
:10139E00A7D1E1B1E095E07221F0A0912B05A0302C
:1013AE0009F437C0A0912905A13031F0E0E0E093B7
:1013BE002A05E1E0E0932905A0912905A13041F528
:1013CE00A0912A05AA30C8F00E94C40F0E94C90F2E
:1013DE00E0E0E09329050E94920FE0B3E095E17002
:1013EE00E1F70E94740EE0916200E460E093620007
:1013FE00E0E0E0932B05CFDD0BC00E94CC0FAAE0FE
:10140E00B0E00E94D00F0E94C40F0E94A90F3BDAD9
:10141E00C6C0A0912905A13049F4E0E0E09329056A
:10142E00E0932A050E94C40F0E94C90FE1B1E09516
:10143E00E07121F0A0912205A13009F40DC0E1E088
:10144E00E0932205E0E0E0932705E0932A05E4E02F
:10145E00E09329050E94690FE1B1E095E07121F456
:10146E00A0912205A13009F00DC0E0E0E093220525
:10147E00E0932705E8E2EA93E4E1EA93EAE3F4E095
:10148E000E94510FE1B1E095E07141F0A091290564
:10149E00A43021F4A0912205A13009F021C0A09121
:1014AE002A05AA3590F00E94980FE0B3E095E170FE
:1014BE00E1F70E94740EE0916200E860E093620032
:1014CE00E2E0E0932B0567DD0BC00E94CC0FAAE58E
:1014DE00B0E00E94D00F0E94D90F0E94A90FD3D95D
:1014EE00E1B1E095E07121F4E1B1E095E07209F02F
:1014FE0011C0A0912B05A13069F00E94980F0E9497
:10150E00920FE0B3E095E170E1F70E94740EE1E016
:10151E00E0932B05A0912B05A13021F4A091280575
:10152E00A03009F018C0A0912605A739A0F4A0910B
:10153E002905A33081F0E0912205E03061F4E091BD
:10154E002705E03011F4ECE101C0E0E0E0932A055C
:10155E00E3E0E0932905A0912905A33001F5A091C0
:10156E002A05AE3188F0E1E0E0932705E0E0E09354
:10157E002905E2E0EA9315D0E2E0E09322050E940D
:10158E00D90F0E94C90F0BC00E94CC0FAEE1B0E084
:10159E000E94D00F0E94D90F0E94A90F74D908CEB5
:1015AE00FFCFC798AFDAE881F0E0E230A0E0FA07AB
:1015BE0061F4E2E0E09322050E94DE0FE0E0F5E048
:1015CE000E94E70FE0E0F5E01BC0309751F4E0E039
:1015DE000E94DE0FE5E0F5E00E94E70FE5E0F5E0A2
:1015EE000FC0E130A0E0FA0771F4E1E00E94DE0FD7
:1015FE000E94830FE0E0EA93ECE3EA93EFE0F5E07C
:10160E00FA93EA9340D94BDA13DBC79AD2C0A8817A
:10161E00B981EC91E03081F0AA81BB810D90AA8353
:10162E00BB83A881B981ED91A883B983E01519F028
:10163E00E0E00C94630EEBCFE1E00C94630E1A9392
:10164E000A931C8100E0143658F0143638F00E94CC
:10165E00D60EE456F0401E2F0F5FF7CF0E94F20F0A
:10166E0000E01A3030F00E94D60E3A971E2F0F5F10
:10167E00F8CF0E94F20FE12FE05DAA81BB81EC93BF
:10168E00EA81FB813196EA83FB83AA81BB81E0E08C
:10169E00EC9319810881259608952A978AE0A0E097
:1016AE00B0E0EAECF3E00E949812E4E05E2E0E94B5
:1016BE00750FE0911C050E94430FE0E50E94FD0F9F
:1016CE00E0911D050E94430FE2E60E94FD0FE0919E
:1016DE001E050E94430FE4E70E94FD0F2A9608950F
:1016EE0060978AE0A6E0B0E0E4EDF3E00E94981285
:1016FE001A9310E0E4E05E2EE1E80E943C0F1E2FEC
:10170E00E09121051E1770F4FE013496FA93EA93C8
:10171E00FE013796FA93EA93FE013A96FA93EA930C
:10172E0031DB07C01E83E0912005ED83E0911F059C
:10173E00EC83A0912105EE81EA1741F00E94001082
:10174E00E4E70E940710EE81E0932105A0912005A9
:10175E00ED81EA1741F00E940010E2E60E940710A8
:10176E00ED81E0932005A0911F05EC81EA1741F071
:10177E000E940010E0E50E940710EC81E0931F0527
:10178E00A0912105A03021F4A0912005A03009F0F0
:10179E0001C083DF188161960895E881E06CE7B996
:1017AE008BE18A95F1F7369A349BFECF349AE4B1E9
:1017BE00F5B1219608951A9310E0143658F4C49A90
:1017CE0088EC90E00197F1F7C49885E88A95F1F7D7
:1017DE001F5FF3CF199108955524EDE4EA93E5E0E8
:1017EE00EA93EDE4EA93E7E3EA930E94AA04E0E5C4
:1017FE00EA93E4E1EA93E0E8EA93E4E1EA930E94F3
:10180E00AA040E946E0FE1E4F4E00E94510FE0E0A2
:10181E00EA93EAE0EA93E7E4F4E00E94510F0E94B3
:10182E005A0FEDE4F4E00E94510FE0E0EA93E4E198
:10183E00EA93E2E5F4E00E94510FE8E2EA93E4E174
:10184E00EA93EDE4F4E00E94510FE0E0EA93E9E15F
:10185E00EA93E9E5F4E00E94510FE3E2EA93E9E14D
:10186E00EA93EFE5F4E00E94510FE0E0EA93E3E241
:10187E00EA93E6E6F4E00E94510FE3E2EA93EA937C
:10188E00EFE5F4E00E94510FE0E0EA93E8E2EA931C
:10189E00ECE6F4E00E94510FE0E5EA93E5E0EA930E
:1018AE00E2E7F4E00E94510FE0E5EA93EAE0EA9302
:1018BE00EBE7F4E00E94510FF0DEE5E5EA93E9E193
:1018CE00EA93E2E5F4E00E94510FE0E5EA93E8E2E4
:1018DE00EA93E4E8F4E00E94510FE0E5EA93E2E3D4
:1018EE00EA93EDE8F4E00E94510FE3E6EA93E2E3B7
:1018FE00EA93E0E9F4E00E94510FE0E5EA93ECE3AD
:10190E00EA93E6E9F4E00E94510FE3E6EA93ECE392
:10191E00EA93E9E9F4E00E94510F0895E0E0EBBB91
:10192E00EABBE8BBE7BB0E94700EE0E0E2BBE1BBA6
:10193E00E3B9E2B9E0936200E0936100E0936500E1
:10194E00E0936400E0BFE3BFE2BFE1BFEFBDEEBDD9
:10195E00EDBDECBDE7BDE6BDEBBDEABDE9BDE8BD45
:10196E00E0937900E0937800E5BDE4BDE3BDE0933C
:10197E008B00E0938A00E0938900E0938800E09367
:10198E008100E0938000E0938700E0938600E0936F
:10199E008500E0938400E0938300E0938200E0935F
:1019AE006A00EABFE9BFE7BFE0937D00E0E8E8B96F
:1019BE00E0E0E0BD0895B981A881EC91EA930E9420
:1019CE00150EEE2311F01196F8CFE894EC91ED324E
:1019DE0011F4689402C0EB3209F41196662777274A
:1019EE00EC91EA930E940D0EEE2379F0FB01660F47
:1019FE00771F660F771F6E0F7F1F660F771FED9194
:101A0E00FF27E0536E0F7F1FEBCFFB011EF4E09517
:101A1E00F095319622960895A991B991E991F9918F
:101A2E0030962AF4E095F09531966DE26D93E89438
:101A3E0080E197E20DD088EE93E00AD084E69927F4
:101A4E0007D08AE005D06E2F10D066276C930895CC
:101A5E006627E817F90720F06395E81BF90BC9F71D
:101A6E00662311F416F008956894605D6D930895E1
:101A7E002497E0E0E883E983EA83EFE3EB831A93AC
:101A8E000A93EB85FC85EF3FAFEFFA0759F4EE8131
:101A9E00FF81FA93EA93E2EAF4E0FA93EA930E9462
:101AAE00650EB0C0EF3FAFE7FA0759F4EE81FF8144
:101ABE00FA93EA93E3EAF4E0FA93EA930E94650E4E
:101ACE00A1C0AC85AA2362F4E985FA856B857C8575
:101ADE000E944F100E9410100E941510EDE2EC9320
:101AEE00A885A73010F0E6E0E8871885E12F1150A1
:101AFE00E03039F00E941C100E9421100E94281024
:101B0E00F5CF0E942D100E94F5100E94101010E0CB
:101B1E00E0E0F0E060E87FE30E9428100E942D10C4
:101B2E000E94D81150F00E941C100E94BF0F0E94FC
:101B3E0045110E9428101F5FF1CF103029F40E942A
:101B4E001510E0E3EC932FC0E12F1150E03059F166
:101B5E000E941C100E942110A0E0B0E080E09FE3E4
:101B6E000E94F5100E9478120E944E0E0E942810BC
:101B7E000E942D100E9493110E9482100E2F0E941F
:101B8E001510E02FE05DEC930E94D90E0E941C1000
:101B9E000E941E120E94BB100E9445110E94361018
:101BAE000E943B10D1CFE885E03041F10E94151024
:101BBE00EEE2EC93E885E150E887EF5FF9F00E94E2
:101BCE0036100E94BF0F0E9445110E941010E98529
:101BDE00FA856B857C850E9482100E2F0E9415104F
:101BEE00E02FE05DEC930E94D90E0E9436100E9409
:101BFE001E120E94BB100E943B10DCCFAE81BF8133
:101C0E00E0E0EC93198108812D960895E1E0F991B9
:101C1E00F03310F0FA3308F0EE270895E1E0F99171
:101C2E00F03229F0F93010F0FE3008F0EE2708956A
:101C3E007B816A81F981E88177FB770F67FD71609F
:101C4E00972F9E5781F078F0983190F4AA27BB27F2
:101C5E00882708948795B795A7959A95D1F7EA2383
:101C6E00FB23682305C0E8947727EE27FF27662716
:101C7E006F77769508F4606877F9A991B991899193
:101C8E009991EA17FB076807790797FB08950E9459
:101C9E0040100E9478120E941F0E0E94731219F4B7
:101CAE000E94401009C0E6F70E944010A0E0B0E08C
:101CBE0080E89FE30E94EE1024960895E991F99131
:101CCE00A991B991CD0105900D920020E1F7FC018B
:101CDE000895E0E0E5BBE4BB0895E4E6F0E0FA9396
:101CEE00EA930C944310EFE3EA930E942003E0EC96
:101CFE00EA930C942003EEE3EA930E942003E0E4BF
:101D0E00EA930E94200310E00895E12FE86BEA9316
:101D1E000E94200300E00895B0E0E8E0F0E00E94A9
:101D2E0048120E2F0895E02FE86BEA930E942003CD
:101D3E00EE81E064EA930C9420030E940A031E2FA6
:101D4E000E940A031E2F0895E52DF0E030970895A6
:101D5E00AC81EFEFAE27E32F0E9404120895E02F1F
:101D6E00EF5FE86BEA930E942003EE81E064EA9352
:101D7E000C9420037727E32FF0E0A8E0B0E00E9458
:101D8E008312EA1BFB0BDB010E940C12E12B089560
:101D9E00E02FAC81EA0FEA93EC81EA930895E12FEC
:101DAE00F0E00895E02FF0E00895A5E01A02F001AA
:101DBE00AC81EA0FE10FEA93EC81EA930895EA937E
:101DCE000E940D04E981FA813196E983FA831F5F3F
:101DDE000895E889F989AA85BB85EA0FFB1FEA8772
:101DEE00FB870895EE85FF85A885B985EA0FFB1F51
:101DFE00E887F9870895AC85BD85EA0FFB1FEC8750
:101E0E00FD870895FA93EA930C944310E7EDF0E8FA
:101E1E00FA93EA930C94BC05FA93EA930C94BC05DE
:101E2E00E1E8FAECF9CF83E08A95F1F796980895F8
:101E3E00EA930E942706EAEAEA93E1E00895EA931C
:101E4E00E1E0EA930C942706E0916200E062E093F1
:101E5E0062008BE18A95F1F7E0916200EF7DE093ED
:101E6E0062008BE18A95F1F70895EA930E947C0651
:101E7E001E2F1A930C946506EA93FE013196FA937F
:101E8E00EA930C94260BEA93FE013296FA93EA93A8
:101E9E000C944A04FA93EA930C943A04E3E2EA931C
:101EAE00E5E0EA930895E8E2EA93EAE0EA9308951A
:101EBE00E9EEF3E0EFCFE8E2EA93E4E1EA93EEEE47
:101ECE00F3E00895E8E2EA93E4E1EA93F1CFE4E087
:101EDE005E2EE0E0EA93E5E0EA930895ECE1F5E0AA
:101EEE00FA93EA93EDE1F5E0FA93EA93EEE1F5E089
:101EFE00FA93EA930C94D806EFE0F5E0FA93EA939E
:101F0E00E4E0EA930C94E705EA93EDE1F4E0C2CF46
:101F1E00E4EFF1E077CFE0916200E77FE0936200BB
:101F2E000895E0916200EB7FE09362000895E6E190
:101F3E00F5E0FA93EA930895FA93EA930E940E0B52
:101F4E00E0300895FE013696FA93EA9308950E94C2
:101F5E0093110E9473120E947812E1E0EA93FE013F
:101F6E003996FA93EA930E943F0DE3E2EA930895BD
:101F7E00E0E0F0E060E271E40895E1E4EA93EAE083
:101F8E00EA930895E6E0F4E085CFE0912A05F0E0CB
:101F9E000895AE1BBF0BAA93FE013596FA93EA93F2
:101FAE000C94260BE1E4EA93E4E1EA930895E093BE
:101FBE002C05E0E0E0932D05E1E0E0932E05089579
:101FCE00FA93EA93E4E0EA930E94E705E0E0EA93ED
:101FDE00ECE3EA930895E02FE05DAA81BB81EC93D8
:101FEE00EA81FB813196EA83FB830895EA93EAE066
:101FFE004ACFEA93FE013896FA93EA930C94260B95
:10200E00EA93E5E0EA93FE013996FA93EA930C948B
:10201E004A04E987FA876B877C870895AE81BF8172
:10202E001196AE83BF8311970895AA81BB818C81CF
:10203E009D810895EDECFCEC6CEC7DE30E94451166
:10204E000895EA83FB836C837D830895EA81FB8187
:10205E006C817D81A985BA858B859C850895A9851E
:10206E00BA858B859C8508950E947D120E94EE1084
:10207E00D0CF0E9469120895E991F991309639F006
:10208E0080ED97E00197F1F7A8953197C9F708957C
:10209E0030976040704009F070580895552342F40F
:1020AE00503811F4E0FF04C03196691F791F6BF0B0
:1020BE0050E8572711F45F93CFC05F3F31F0660FA2
:1020CE00000C57956795752F08955F9300200AF0C1
:1020DE00CFC0C8C050E8192E1522880F991F95271A
:1020EE00550F879550E8072E0522660F771F752727
:1020FE00550F67950895689401C0E8945F93F2DFD9
:10210E00703818F07F3F08F4A7C056E1571BAAF4A9
:10211E00519558300EF4593030F0EFEFFFEF6FEF6E
:10212E007FE777F91AC077275523B9F0EE0FFF1F17
:10213E00661F771F5A95D1F710C07727583028F0B1
:10214E00EF2FF62F672F5850F9CF552331F0769594
:10215E006795F795E7955A95D1F700200AF445D182
:10216E005F910895689401C0E89430976040704084
:10217E00B1F0002426F0772312F4009436D1172EF6
:10218E007EE1112032F07A95EE0FFF1F661F111CB3
:10219E00F9CFEF2FF62F612D5F938ADF5F910895B0
:1021AE004F93AF01FD01DA01AB01BC01CA01402D15
:1021BE00012C142E4F910895EA0FFB1F681F0895EE
:1021CE00E095F0956095EF5FFF4F6F4F08955F9329
:1021DE0081DF903871F150E8152604C05F937ADFE5
:1021EE00903839F1703821F1572F591B2BF112F419
:1021FE00D7DFFACF583118F0AA27BB2788275830D7
:10220E0028F0AB2FB82F88275850F9CF552329F037
:10221E008695B795A7955A95D9F7502D512572F0F9
:10222E00CBDF38F46795F795E795739513F420C0D7
:10223E00B7DF3EDF5F910895D8F7FBCFEA1BFB0BAC
:10224E00680B51F010F40094BBDF662392F3EE0F8F
:10225E00FF1F661F7A95CBF7EE27FF276627772796
:10226E005F910895EFEFFFEF6FE77FEF5F910895B6
:10227E00EFEFFFEF6FE77FE75F9108955F932ADF40
:10228E00703851F3903841F301240894791F23F4E8
:10229E001CF300203AF3ECCF0F921F932F933F9332
:1022AE004F93112722279927689FA0018F9F302DCA
:1022BE00410D591F6B9F300D411D591F8E9F27D009
:1022CE00BF9F25D06A9F23D0BE9F1DD0AF9F1BD02E
:1022DE00AE9F110D291F391F491F591FE32FF42FD0
:1022EE00652F522F4F913F912F911F910F90662383
:1022FE002AF0550FEE1FFF1F661F02C073954BF29B
:10230E00CDDE5F910895100D211D391F02C0200DE5
:10231E00311D491F591F08955F93DCDE703821F47B
:10232E0011200AF49FCFA4CF903809F495CF012441
:10233E000894970B1BF4D4F30020F3CF792F1F933F
:10234E002F933F934F93112411272227332744278E
:10235E00552790E2AE17BF078607410730F0AE1B38
:10236E00BF0B860B410B089401C08894551F221F8A
:10237E00331F111CAA1FBB1F881F441F9A9551F7AC
:10238E00F901612D4F913F912F911F91662332F0EC
:10239E00550FEE1FFF1F661F7A9543F27FDE5F918A
:1023AE00089599239AF0772342F0971748F029F46D
:1023BE00AE17BF07860720F031F0989488940895E1
:1023CE009894089408951894889408957723C2F7E2
:1023DE00971798F3A9F7EA17FB07680788F399F39D
:1023EE00ECCFF195E195F0400895F09560957095DC
:1023FE00E195FF4F6F4F7F4F0895EE230E2EEA2F7C
:10240E0019F0EE0F0A94E9F70895EE230E2EFD0152
:10241E0021F0F595E7950A94E1F70895F595E7957E
:10242E00F595E795F595E795F595E79508956F2F51
:10243E00660F660B762F0895EA17E1E008F0EE2797
:10244E000895FA9FF02DEB9FF00DEA9FE02DF10D10
:10245E0008952AD0F6DF0EF4C4DF08950024112467
:10246E0090E1AA0FBB1F001C111C0E1A1F0A18F4B4
:10247E000E0E1F1E01C0A1609A9599F7FD01D001A5
:10248E00089512D0EBDF0EF4ACDF0895E894B7FF99
:10249E0004C0A095B09511966894F7FDA2DFDEDF1B
:1024AE00FD010EF49EDF0895E894F7FF02C099DF58
:1024BE006894B7FF06C0A095B095119600F80394E6
:1024CE0000FA0895E881F9816A817B810895A881D7
:1024DE00B9818A819B810895E883F9836A837B831E
:1024EE0008957A936A93FA93EA930895182E862F95
:1024FE00612D192E972F712D1B2EBF2FF12D1A2EF8
:10250E00AE2FE12D08955A934A933A932A931A9334
:10251E000A9308955D814C813B812A81198108813E
:10252E000895AC0FBD1F05900D928A95E1F70895A1
:00000001FF
