:0200000064C0DA
:10000200FECF91C0FCCFFBCFFACFF9CFF8CFF7CF1D
:10001200F6CFF5CFF4CFF3CFF2CFF1CFF0CFEFCFD2
:10002200EECFEDCF1027E80364000A0001000010B4
:1000320000011000010054686549636546616E74F1
:10004200617379002D3D2044696548617264203DE9
:100052002D002D20426F6F6769654D616E202D0066
:10006200436F6E74726F6C6C6572204F4B0055203B
:100072003D202532642E253164560053746172741A
:10008200204F4B20202020200053746172742045A1
:1000920052524F52202000456E67696E65204552CC
:1000A200524F522000456E67696E652053544F507F
:1000B200202100000D00600138000D006E01460095
:1000C2000D007C0154000000F894EE27ECBBF1E037
:1000D200FBBFEBBFE5BFF8E1F1BDE1BD8DE0A2E002
:1000E200BB27ED938A95E9F780E094E0A0E6ED93D3
:1000F2000197E9F7E6EBF0E085919591009761F0C1
:10010200A591B59105901590BF01F00105900D9252
:100112000197E1F7FB01F0CFEFE5EDBFE4E0EEBFC1
:10012200C0E6D1E07EC00A921A92FA926A937A935A
:100132008A939A93AA93BA93EA93FA93EFB7EA93BC
:100142007AD410E0EBB7EF77EBBFA998FBD11E2F63
:10015200E0918A01E03049F401E0043130F4E02F0B
:100162008BD3A0E0A0830F5FF8CFE0918A0184D304
:100172001083E0918A01EF5FE0938A01A0918A01E6
:10018200AD3041F4E0E0E0938A01E0939901B4D10B
:10019200E1E076D3A99AEBB7E068EBBF56D4E991D8
:1001A200EFBFF991E991B991A991999189917991C9
:1001B2006991F990199009901895A881B981EC91EB
:1001C200E03071F060D30D90AA83BB83A881B9811E
:1001D200ED91A883B983E01511F0E0E08BC1EDCF7A
:1001E200E1E088C128D410E000E0C19A00E00330C9
:1001F200B8F4ECEDF5E04AD3C79A10E01E3168F48A
:10020200E4E6F0E043D3E0B3E095E47021F0E1E00E
:1002120040D318E20AE01F5FF1CFC7980F5FE7CF24
:10022200A5C1649700E010E0EFEFE8BBEFE3E5BBA8
:10023200EFEFE2BBE8E0E5BBE2E0E4BBA398E0E07D
:10024200E8BBE2E8E7BBACD0DBD0E2E6F0E024D3E7
:1002520026D328D3A99AE0ECE7B9E3E8E6B9E0E8C7
:10026200EBBFECE0E5BFE0E8EABF78941ED329F4E7
:1002720020D3ECE7F1E020D309F437C0E0E000D36B
:10028200369A349BFECF00E010E0E4B1F5B133972B
:10029200DF01C9D358F4E4B1F5B13397A8E5B0E072
:1002A20097D3DF01EFE3F2E09BD38F01FE01F4D29B
:1002B200E0E7F0E0F1D204D3DF01F801EA1BFB0B27
:1002C200DF01EAE0F0E08CD366277727A7D3F8D2E4
:1002D20066277727A3D388E08FD22C9691D0FE0190
:1002E200DBD2DDD2D7D066D007D1DFD241F4E1D262
:1002F200E0E6F1E0E1D219F0E8D2A03009F017C04F
:10030200E0E0BED2829B13C0E0E0BAD26BDF78D0CD
:10031200DCD2A13019F4EDE7F0E003C0C198EBE8BC
:10032200F0E0FA93EA93BBD2C8D044D0E5D0CDD264
:10033200A13011F4829901C006C0CAD2E9E9F0E005
:10034200ABD2ADD2AFD2B1D241F4B3D2EEE6F1E04C
:10035200B3D219F0BAD2A13009F006C0B9D2E7EA95
:10036200F0E09AD29CD29ED2B0D2A03011F48299FF
:1003720001C014C0E3B3E095E87081F0EEE1F0E073
:1003820085D2E3B3E095E87049F0E1E082D22ADF5A
:10039200E0E1F7E27BD2C198E0E07BD267CFFFCF0A
:1003A200E3E5E1BB949A909A91989698E4ECF9E08F
:1003B2006DD2089592D2E9E9F2E893D2E0E4F6EA46
:1003C20090D2E7E4F6EC8DD2E0EAF4E98AD2ECEAE4
:1003D200F2EC87D288D2E4EDFEEC83D2E3E8F4ECCF
:1003E20080D2E0E5F8E97DD2E7E1FCEC7AD2E0E008
:1003F200F0EE77D2E0E0F8EC74D2E0E0F0EC7FC00F
:100402006CD274D2E0E4F6EA6CD2E7E4F6EC69D29C
:10041200E0EAF4E966D2ECEAF2EC63D264D2E4ED0B
:10042200FEEC5FD2E3E8F4EC5CD2E0E5F8E959D205
:10043200E7E1FCEC56D2E0E0F0EE53D2E0E0F8EC7B
:1004420050D2E0E0F0EC5BC0F4D220E030E020E0FB
:1004520030E09198949810E01031B0F4ED81E0789A
:1004620011F0909A01C09098919A220F331F8599AA
:1004720021603FD29198EC81FD81EE0FFF1FEC834A
:10048200FD8337D21F5FE8CF949A37D2F901D8D2D1
:10049200269608951A9310E029D2E5E0F0E0F6D10D
:1004A20030D2E9811E1740F4EED1EE27A10FBE1F14
:1004B200EC9144D21F5FF5CF13C01A9310E016D20D
:1004C200E5E0F0E0E3D11DD2E9811E1748F4E12F07
:1004D200DAD1F0E0EA0FFB1FE49130D21F5FF4CFD4
:1004E200EAEA2CD2E0E02AD2949A9698E1E0F2E885
:1004F200F8D1188124960895F6D1E3E8FAECFA933C
:10050200EA93A2DF08951A93A981A13021F4E0B3FE
:10051200E095E072E1F7919810E0183078F4EA8102
:10052200E07811F0909A01C09098919AE2D1919856
:10053200EA81EE0FEA83DDD11F5FEFCFDED11881B2
:100542002396089578D200E000E09698919810E002
:10055200183048F4919A000F85990160CAD1919898
:10056200C8D11F5FF5CF969AC8D1E02F6ED20895F9
:1005720062D289D112964AD23097F1F084D1E2D177
:100582008F01309761F00230E0E01E07A0F0F80121
:1005920031978F01AA81BB811496ED93FC9373D19D
:1005A2001296D3D13197AC81A0836DD12FD2FF2384
:1005B20012F069D1CAD105C066D1EFEFFFEFED931A
:1005C200FC9340D225960895269731D210E0AC854F
:1005D200BD85E0E0F0E0ED93FC93EA89FB8931967A
:1005E200EA8BFB8B3197E4912E2FE03009F4FEC0A9
:1005F200E12FE03031F4253211F411E001C0ABD12A
:10060200F4C0E130A1F4253211F4A5D1EDC012E01D
:1006120040E000E02D3211F401E0E7C02B3211F48A
:100622004BE2E3C0203211F440E2DFC002C0E2300C
:1006320039F450E013E0203311F40068D6C003C04F
:10064200E33009F0D2C0203310F02A3308F007C09B
:10065200AAE05A9F502DE22FE0535E0FC6C0E22F50
:10066200E33639F480D182D17ED1A481AA9382D19A
:10067200BBC0E33731F485D186D188D1E8D01E2FB3
:1006820008C0E03751F47DD17ED180D1EAD01E2F4F
:10069200086002600F7730E02EC0E43611F0E936D0
:1006A20011F4046002C0E53729F4E6E2F0E071D10A
:1006B20015E00BC0E83511F4086003C0E83709F013
:1006C20093C0E0E3F0E065D114E002FF11C059D11C
:1006D2005AD162D1AB85AA232AF4EA85FB8574D16B
:1006E2005BD14DE2403011F01F5F01C00B7F03C0B0
:1006F20048D149D151D100FD10C0151770F407FF40
:1007020008C002FF04C00B7F242F115001C020E358
:1007120001C020E220D15150F0CF312F01FF15C08E
:10072200303091F003FF05C0EE81FF81259131D178
:1007320005C0AE81BF812D91AE83BF830CD15030F5
:1007420009F051503150ECCF46C020E3EE81FF81D9
:1007520061D1E887F987EE81FF8132961AD1E88567
:10076200F985AA85BB85AE17BF0748F02F5FA8851C
:10077200B985EA85FB85EA1BFB0B0ED1F0CF2A3344
:1007820028F003FF02C0295F01C0295D04FD19C0E2
:10079200213320F4A885B985119709F409C05317AC
:1007A20010F000FF01C011C020E207FF0AC020E3E1
:1007B200006102FF06C00B7F4A93DCD0503009F083
:1007C2005150C9D0503009F051503150A885B985E7
:1007D200129708F0BACF00FF07C0503029F05150ED
:1007E200E0E2EA93C7D0F9CF10E0F7CEAC85BD8541
:1007F2000DD124D164960895FF92F82E269719D12F
:10080200CED0309719F4EFEFFFEF1DC0DE01169640
:10081200D7D08D01C4D0BDD0E0E0E887E987DE0102
:100822001A96CED0F3D038D01A930A93E9EBF2E0BD
:1008320033D0FE013A9630D0C7DE9F01AE81BF8130
:10084200E0E0EC93F901FCD02A96FF900895A9917B
:10085200B991EE27FF276D91662311F03196FBCFF8
:100862000895AA27BB27E991F9910590002011F07C
:100872001196FBCFFD010895F0E0E457FE4F089575
:10088200E0938B010895AA81BB810895FA93EA93BC
:100892008BC0E093A0010895FA93EA930895EDE0E6
:1008A200EA9308950ADE86DD27CEA0918B01A1305E
:1008B2000895ECE8F1E0F0CFEFDF7FDCE03008955F
:1008C200D801EAE0F0E09FD00895A091A001089538
:1008D200E0E0DFDFC798C19893CDE7EDF0E8DCDF19
:1008E200B3CDDADFB1CDE1E8FAECFBCFE9E3F2E830
:1008F200F8CF83E08A95F1F708958BE18A95F1F7B5
:1009020008959498969AE8EBEA93E0E0EA93FBDD87
:10091200EAEAEA93E1E0EA93F6DDEAEAEA93E1E061
:10092200EA93F1DDEDE2EA93E1E0EA93ECDDE4ED56
:10093200EA93E1E0EA93E7DD10E00895EA93E1E06B
:10094200EA93E1CD149662D00895ED91FD9131962E
:10095200FE93EE9308952A93ED85FE859DDFE98946
:10096200FA8909950895E889F98908953497E88BF9
:10097200F98B0895ED85FE858FDFE989FA8909955E
:100982000895F1DFF3CFA889B989DCCFEE83FF8325
:1009920083CFEE83FF830895EA87FB870895DE0104
:1009A2001C960ED033D00895E991F991309639F022
:1009B20080ED97E00197F1F7A8953197C9F708956F
:1009C2000024AF0DB01D0895F195E195F040089512
:1009D200FA9FF02DEB9FF00DEA9FE02DF10D0895A7
:1009E2000024112490E1AA0FBB1F001C111C0E1A37
:1009F2001F0A18F40E0E1F1E01C0A1609A9599F7E6
:100A0200FD01D0010895ECDFFD010895ED91FC9107
:100A1200119708950590F491E02D08957A936A93C1
:100A2200FA93EA93089500240A160B0608955A933E
:100A32004A933A932A931A930A9308955D814C81BB
:100A42003B812A811981088108950991199108959C
:00000001FF
